:100000000C942F000C9489020C9489020C948902A0
:100010000C9489020C9489020C9489020C94890234
:100020000C9489020C9489020C9489020C94890224
:100030000C9489020C9489020C9489020C94890214
:100040000C9489020C9489020C9489020C94890204
:100050000C94890200600074800074007680112482
:100060001FBECFE5D8E0DEBFCDBFE4E5F0E040E065
:1000700017C0B591A59135912591059107FD0CC04B
:1000800095918591EF01F92FE82F05900D92A21718
:10009000B307D9F7FE0104C01D92A217B307E1F719
:1000A000EE35F40731F70E9495000C945700F89450
:0200B000FFCF80
:1000B2006C65642031206F6E2E000000000000008D
:1000C200000000006C65642031206F6E2E2E00004F
:1000D20000000000000000006C65642032206F6E9A
:1000E2002E00000000000000000000006C6564208B
:1000F20032206F6E2E2E0000000000000000000073
:100102006C65642031206F66662E000000000000DE
:10011200000000006C65642032206F66662E0000CD
:080122000000000000000000D5
:10012A00CF93DF93CDB7DEB7C25BD1090FB6F89490
:10013A00DEBF0FBECDBF22EB30E040E08AE0F9011E
:10014A00DE011196742F0E9474023AE0FE013B967A
:10015A00DF01232F1D922A95E9F70F2EF6ECCF2EF9
:10016A00F0E0DF2EF0E0EF2EF02D8BE0F601DE015D
:10017A0055967E2D0E94740229E0FE01B096DF0199
:10018A00422F1D924A95E9F70F2EFAEDCF2EF0E095
:10019A00DF2EF0E0EF2EF02D8AE0F601DE019996CF
:1001AA007E2D0E947402FE01F396DF011D923A959C
:1001BA00E9F70F2EFEEECF2EF0E0DF2EF0E0EF2E65
:1001CA00F02D8BE0F601DE01DD967E2D0E94740291
:1001DA00FE01E85BFF4FDF01322F1D923A95E9F7E6
:1001EA000F2EF2E0CF2EF1E0DF2EF0E0EF2EF02D11
:1001FA008BE0F601DE01AF5ABF4F7E2D0E947402DA
:10020A00E1E5F0E0EC0FFD1F3B96DF01322F1D9276
:10021A003A95E9F70F2EF6E1CF2EF1E0DF2EF0E066
:10022A00EF2EF02D8BE0F601DE01AB59BF4F7E2D8C
:10023A000E947402E5E6F0E0EC0FFD1F3B96DF0139
:10024A001D922A95E9F707E610E023E030E040E046
:10025A0050E060E070E080E090E00E94190240E027
:10026A0063E080E00E94550200E05E01B9E7AB0E50
:10027A00B11C6501E0E8EE2ECE0101969C0140E832
:10028A00CF55DF4F288339834A83C15AD040889695
:10029A009C0140E8CC55DF4F288339834A83C45AEE
:1002AA00D04088969C0140E8C955DF4F288339839E
:1002BA004A83C75AD04044969C0140E8C655DF4F4E
:1002CA00288339834A83CA5AD040805591099C01B0
:1002DA0040E8C355DF4F288339834A83CD5AD0403B
:1002EA0088969C0140E8C055DF4F288339834A83AA
:1002FA00C05BD040662463946894552451F868948E
:10030A00332432F80F2EF3E04F2EF02D802F0E9467
:10031A0085020E943902AC0160E8C5010E946502AB
:10032A004E2D9601CF55DF4F688179818A81C15A56
:10033A00D0400E94F801182F4E2D9601CC55DF4F60
:10034A00688179818A81C45AD0400E94F801982E26
:10035A004E2D9601C955DF4F688179818A81C75A26
:10036A00D0400E94F801882E4E2D9601C655DF4FC7
:10037A00688179818A81CA5AD0400E94F801782E10
:10038A004E2D9601C355DF4F688179818A81CD5AF6
:10039A00D0400E94F801F82E4E2D9601C055DF4F2D
:1003AA00688179818A81C05BD0400E94F80111235B
:1003BA0011F0F11004C0D5011C92062DA7CF992087
:1003CA0011F0811104C0F5011082052D9FCF811013
:1003DA0004C0D5011C92042D99CF711097CFF50155
:0603EA001082032D93CFE9
:1003F000CF92DF92EF926B01E82EF6018491E7FC39
:100400008081F901549147FD508185130BC08823E9
:1004100041F08FEFC81AD80AE80A2F5F3F4F4F4FBD
:10042000ECCF582F90E0851B9109EF90DF90CF9093
:0204300008952D
:100432000F931F9310BD09B9E8E1EAB9220F331FE8
:1004420062957295707F7627607F7627622B440FC4
:10045200551F440F551F440F551F462B9695982F35
:10046200882797958795482B40BD1F910F91089536
:10047200CF93DF9380E690E09093750080937400B1
:1004820005C02196D0937500C0937400C09174008A
:10049200D09175000E94810288838E3291F780E6A6
:0804A20090E0DF91CF91089575
:1004AA0097B3906B97BB9DB19065692B20E8829FAB
:1004BA00C0011124862B8DB98EB1482B4EB90895EF
:1004CA009A01462FDC01F901549147FD50815D9351
:0E04DA00552321F02F5F3F4F4F4FF5CF089570
:1004E800992777FD05C005900D920197E1F70895CA
:0A04F80001900D920197E1F70895BD
:080502005F9BFECF8CB1089550
:08050A008FB9779BFECF089525
:040512000C94000045
:00000001FF
