:100000000C942D000C9443010C9443010C94430177
:100010000C9443010C9443010C9443010C94430150
:100020000C9443010C9443010C9443010C94430140
:100030000C9457000C9443010C9443010C9443011D
:100040000C9443010C9443010C9443010C94430120
:100050000C94430100600061800011241FBECFE5B5
:10006000D8E0DEBFCDBFE4E5F0E040E017C0B591D9
:10007000A59135912591059107FD0CC0959185912C
:10008000EF01F92FE82F05900D92A217B307D9F7CA
:10009000FE0104C01D92A217B307E1F7E935F4078A
:0E00A00031F70E942E010C945500F894FFCF0A
:1000AE001F920F920FB60F9211242F933F934F93DF
:1000BE005F936F937F938F939F93AF93BF93EF93C2
:1000CE00FF938FB180936000823079F018F4813005
:1000DE0031F01CC0833079F0843099F017C063E0A2
:1000EE0080E090E00E94E10011C063E081E090E0CA
:1000FE000E94E1000BC063E080E090E00E949E0051
:10010E0005C063E081E090E00E949E00FF91EF91B8
:10011E00BF91AF919F918F917F916F915F914F9111
:0E012E003F912F910F900FBE0F901F901895CC
:10013C006230B9F018F4613031F008956330F9F0A1
:10014C00643059F108954BB321E030E0B90102C09D
:10015C00660F771F8A95E2F7CB01809584238BBBC2
:10016C00089548B321E030E0B90102C0660F771F53
:10017C008A95E2F7CB018095842388BB089545B31B
:10018C0021E030E0B90102C0660F771F8A95E2F7D3
:10019C00CB018095842385BB089542B321E030E0E8
:1001AC00B90102C0660F771F8A95E2F7CB018095E3
:0601BC00842382BB0895BC
:1001C2006230B1F018F4613031F008956330E9F033
:1001D200643041F108954BB321E030E0B90102C02F
:1001E200660F771F8A95E2F7CB01842B8BBB0895AC
:1001F20048B321E030E0B90102C0660F771F8A954B
:10020200E2F7CB01842B88BB089545B321E030E0AF
:10021200B90102C0660F771F8A95E2F7CB01842BE2
:1002220085BB089542B321E030E0B90102C0660FF8
:0E023200771F8A95E2F7CB01842B82BB0895DB
:10024000BE9A9DB19064692B20E8829FC001112461
:0C025000862B8DB98EB1482B4EB9089555
:10025C0040E063E081E00E94200180E090E00E9499
:06026C0039017894FFCF78
:10027200009719F0019721F008958FEF84BB08953C
:0402820014BA08950D
:040286000C940000D4
:00000001FF
